{
  "_format": "hh-sol-artifact-1",
  "contractName": "ToDoList",
  "sourceName": "contracts/ToDoList.sol",
  "abi": [
    {
      "inputs": [],
      "stateMutability": "nonpayable",
      "type": "constructor"
    },
    {
      "anonymous": false,
      "inputs": [
        {
          "indexed": true,
          "internalType": "address",
          "name": "account",
          "type": "address"
        },
        {
          "indexed": true,
          "internalType": "uint256",
          "name": "userId",
          "type": "uint256"
        },
        {
          "indexed": false,
          "internalType": "string",
          "name": "message",
          "type": "string"
        },
        {
          "indexed": false,
          "internalType": "bool",
          "name": "completed",
          "type": "bool"
        }
      ],
      "name": "ToDoEvent",
      "type": "event"
    },
    {
      "inputs": [],
      "name": "_idUser",
      "outputs": [
        {
          "internalType": "uint256",
          "name": "",
          "type": "uint256"
        }
      ],
      "stateMutability": "view",
      "type": "function"
    },
    {
      "inputs": [
        {
          "internalType": "string",
          "name": "_message",
          "type": "string"
        }
      ],
      "name": "createList",
      "outputs": [],
      "stateMutability": "nonpayable",
      "type": "function"
    },
    {
      "inputs": [
        {
          "internalType": "uint256",
          "name": "",
          "type": "uint256"
        }
      ],
      "name": "creators",
      "outputs": [
        {
          "internalType": "address",
          "name": "",
          "type": "address"
        }
      ],
      "stateMutability": "view",
      "type": "function"
    },
    {
      "inputs": [],
      "name": "getAddress",
      "outputs": [
        {
          "internalType": "address[]",
          "name": "",
          "type": "address[]"
        }
      ],
      "stateMutability": "view",
      "type": "function"
    },
    {
      "inputs": [
        {
          "internalType": "address",
          "name": "_address",
          "type": "address"
        }
      ],
      "name": "getCreatorData",
      "outputs": [
        {
          "internalType": "address",
          "name": "",
          "type": "address"
        },
        {
          "internalType": "uint256",
          "name": "",
          "type": "uint256"
        },
        {
          "internalType": "string",
          "name": "",
          "type": "string"
        },
        {
          "internalType": "bool",
          "name": "",
          "type": "bool"
        }
      ],
      "stateMutability": "view",
      "type": "function"
    },
    {
      "inputs": [],
      "name": "getMessage",
      "outputs": [
        {
          "internalType": "string[]",
          "name": "",
          "type": "string[]"
        }
      ],
      "stateMutability": "view",
      "type": "function"
    },
    {
      "inputs": [
        {
          "internalType": "uint256",
          "name": "",
          "type": "uint256"
        }
      ],
      "name": "messaage",
      "outputs": [
        {
          "internalType": "string",
          "name": "",
          "type": "string"
        }
      ],
      "stateMutability": "view",
      "type": "function"
    },
    {
      "inputs": [
        {
          "internalType": "uint256",
          "name": "",
          "type": "uint256"
        }
      ],
      "name": "messageId",
      "outputs": [
        {
          "internalType": "uint256",
          "name": "",
          "type": "uint256"
        }
      ],
      "stateMutability": "view",
      "type": "function"
    },
    {
      "inputs": [],
      "name": "ownerOfContract",
      "outputs": [
        {
          "internalType": "address",
          "name": "",
          "type": "address"
        }
      ],
      "stateMutability": "view",
      "type": "function"
    },
    {
      "inputs": [
        {
          "internalType": "address",
          "name": "",
          "type": "address"
        }
      ],
      "name": "toDoListApps",
      "outputs": [
        {
          "internalType": "address",
          "name": "account",
          "type": "address"
        },
        {
          "internalType": "uint256",
          "name": "userId",
          "type": "uint256"
        },
        {
          "internalType": "string",
          "name": "message",
          "type": "string"
        },
        {
          "internalType": "bool",
          "name": "completed",
          "type": "bool"
        }
      ],
      "stateMutability": "view",
      "type": "function"
    },
    {
      "inputs": [
        {
          "internalType": "address",
          "name": "_creator",
          "type": "address"
        }
      ],
      "name": "toggle",
      "outputs": [],
      "stateMutability": "nonpayable",
      "type": "function"
    }
  ],
  "bytecode": "0x608060405234801561001057600080fd5b5033600160006101000a81548173ffffffffffffffffffffffffffffffffffffffff021916908373ffffffffffffffffffffffffffffffffffffffff160217905550611142806100616000396000f3fe608060405234801561001057600080fd5b50600436106100a95760003560e01c8063588f9acc11610071578063588f9acc1461017d57806374310d081461019957806394432cc5146101cc578063b8dcc68f146101ea578063cd53d08e14610206578063ce6d41de14610236576100a9565b80630d64e697146100ae57806321e47d46146100e157806338cc48311461011157806341eee27f1461012f578063468229ae1461015f575b600080fd5b6100c860048036038101906100c39190610aff565b610254565b6040516100d89493929190610c08565b60405180910390f35b6100fb60048036038101906100f69190610c80565b6103d9565b6040516101089190610cad565b60405180910390f35b6101196103fd565b6040516101269190610d86565b60405180910390f35b61014960048036038101906101449190610c80565b61048b565b6040516101569190610da8565b60405180910390f35b610167610537565b6040516101749190610dca565b60405180910390f35b61019760048036038101906101929190610aff565b61055d565b005b6101b360048036038101906101ae9190610aff565b6105d2565b6040516101c39493929190610c08565b60405180910390f35b6101d46106b7565b6040516101e19190610cad565b60405180910390f35b61020460048036038101906101ff9190610e4a565b6106bd565b005b610220600480360381019061021b9190610c80565b6108c3565b60405161022d9190610dca565b60405180910390f35b61023e610902565b60405161024b9190610fa3565b60405180910390f35b6000806060600080600560008773ffffffffffffffffffffffffffffffffffffffff1673ffffffffffffffffffffffffffffffffffffffff1681526020019081526020016000206040518060800160405290816000820160009054906101000a900473ffffffffffffffffffffffffffffffffffffffff1673ffffffffffffffffffffffffffffffffffffffff1673ffffffffffffffffffffffffffffffffffffffff1681526020016001820154815260200160028201805461031690610ff4565b80601f016020809104026020016040519081016040528092919081815260200182805461034290610ff4565b801561038f5780601f106103645761010080835404028352916020019161038f565b820191906000526020600020905b81548152906001019060200180831161037257829003601f168201915b505050505081526020016003820160009054906101000a900460ff161515151581525050905080600001518160200151826040015183606001519450945094509450509193509193565b600481815481106103e957600080fd5b906000526020600020016000915090505481565b6060600280548060200260200160405190810160405280929190818152602001828054801561048157602002820191906000526020600020905b8160009054906101000a900473ffffffffffffffffffffffffffffffffffffffff1673ffffffffffffffffffffffffffffffffffffffff1681526020019060010190808311610437575b5050505050905090565b6003818154811061049b57600080fd5b9060005260206000200160009150905080546104b690610ff4565b80601f01602080910402602001604051908101604052809291908181526020018280546104e290610ff4565b801561052f5780601f106105045761010080835404028352916020019161052f565b820191906000526020600020905b81548152906001019060200180831161051257829003601f168201915b505050505081565b600160009054906101000a900473ffffffffffffffffffffffffffffffffffffffff1681565b6000600560008373ffffffffffffffffffffffffffffffffffffffff1673ffffffffffffffffffffffffffffffffffffffff16815260200190815260200160002090508060030160009054906101000a900460ff16158160030160006101000a81548160ff0219169083151502179055505050565b60056020528060005260406000206000915090508060000160009054906101000a900473ffffffffffffffffffffffffffffffffffffffff169080600101549080600201805461062190610ff4565b80601f016020809104026020016040519081016040528092919081815260200182805461064d90610ff4565b801561069a5780601f1061066f5761010080835404028352916020019161069a565b820191906000526020600020905b81548152906001019060200180831161067d57829003601f168201915b5050505050908060030160009054906101000a900460ff16905084565b60005481565b6106c56109db565b6000805490506000600560003373ffffffffffffffffffffffffffffffffffffffff1673ffffffffffffffffffffffffffffffffffffffff1681526020019081526020016000209050338160000160006101000a81548173ffffffffffffffffffffffffffffffffffffffff021916908373ffffffffffffffffffffffffffffffffffffffff16021790555083838260020191906107649291906109f4565b5060008160030160006101000a81548160ff0219169083151502179055508181600101819055506002339080600181540180825580915050600190039060005260206000200160009091909190916101000a81548173ffffffffffffffffffffffffffffffffffffffff021916908373ffffffffffffffffffffffffffffffffffffffff160217905550600384849091806001815401808255809150506001900390600052602060002001600090919290919290919290919250919061082b9291906109f4565b50600482908060018154018082558091505060019003906000526020600020016000909190919091505580600101543373ffffffffffffffffffffffffffffffffffffffff167f97cb199a6fede85e8843b14a3b82273a76130b0e671f8803ce27aa90d52ee11486868560030160009054906101000a900460ff166040516108b593929190611062565b60405180910390a350505050565b600281815481106108d357600080fd5b906000526020600020016000915054906101000a900473ffffffffffffffffffffffffffffffffffffffff1681565b60606003805480602002602001604051908101604052809291908181526020016000905b828210156109d257838290600052602060002001805461094590610ff4565b80601f016020809104026020016040519081016040528092919081815260200182805461097190610ff4565b80156109be5780601f10610993576101008083540402835291602001916109be565b820191906000526020600020905b8154815290600101906020018083116109a157829003601f168201915b505050505081526020019060010190610926565b50505050905090565b6000808154809291906109ed906110c3565b9190505550565b828054610a0090610ff4565b90600052602060002090601f016020900481019282610a225760008555610a69565b82601f10610a3b57803560ff1916838001178555610a69565b82800160010185558215610a69579182015b82811115610a68578235825591602001919060010190610a4d565b5b509050610a769190610a7a565b5090565b5b80821115610a93576000816000905550600101610a7b565b5090565b600080fd5b600080fd5b600073ffffffffffffffffffffffffffffffffffffffff82169050919050565b6000610acc82610aa1565b9050919050565b610adc81610ac1565b8114610ae757600080fd5b50565b600081359050610af981610ad3565b92915050565b600060208284031215610b1557610b14610a97565b5b6000610b2384828501610aea565b91505092915050565b610b3581610ac1565b82525050565b6000819050919050565b610b4e81610b3b565b82525050565b600081519050919050565b600082825260208201905092915050565b60005b83811015610b8e578082015181840152602081019050610b73565b83811115610b9d576000848401525b50505050565b6000601f19601f8301169050919050565b6000610bbf82610b54565b610bc98185610b5f565b9350610bd9818560208601610b70565b610be281610ba3565b840191505092915050565b60008115159050919050565b610c0281610bed565b82525050565b6000608082019050610c1d6000830187610b2c565b610c2a6020830186610b45565b8181036040830152610c3c8185610bb4565b9050610c4b6060830184610bf9565b95945050505050565b610c5d81610b3b565b8114610c6857600080fd5b50565b600081359050610c7a81610c54565b92915050565b600060208284031215610c9657610c95610a97565b5b6000610ca484828501610c6b565b91505092915050565b6000602082019050610cc26000830184610b45565b92915050565b600081519050919050565b600082825260208201905092915050565b6000819050602082019050919050565b610cfd81610ac1565b82525050565b6000610d0f8383610cf4565b60208301905092915050565b6000602082019050919050565b6000610d3382610cc8565b610d3d8185610cd3565b9350610d4883610ce4565b8060005b83811015610d79578151610d608882610d03565b9750610d6b83610d1b565b925050600181019050610d4c565b5085935050505092915050565b60006020820190508181036000830152610da08184610d28565b905092915050565b60006020820190508181036000830152610dc28184610bb4565b905092915050565b6000602082019050610ddf6000830184610b2c565b92915050565b600080fd5b600080fd5b600080fd5b60008083601f840112610e0a57610e09610de5565b5b8235905067ffffffffffffffff811115610e2757610e26610dea565b5b602083019150836001820283011115610e4357610e42610def565b5b9250929050565b60008060208385031215610e6157610e60610a97565b5b600083013567ffffffffffffffff811115610e7f57610e7e610a9c565b5b610e8b85828601610df4565b92509250509250929050565b600081519050919050565b600082825260208201905092915050565b6000819050602082019050919050565b600082825260208201905092915050565b6000610edf82610b54565b610ee98185610ec3565b9350610ef9818560208601610b70565b610f0281610ba3565b840191505092915050565b6000610f198383610ed4565b905092915050565b6000602082019050919050565b6000610f3982610e97565b610f438185610ea2565b935083602082028501610f5585610eb3565b8060005b85811015610f915784840389528151610f728582610f0d565b9450610f7d83610f21565b925060208a01995050600181019050610f59565b50829750879550505050505092915050565b60006020820190508181036000830152610fbd8184610f2e565b905092915050565b7f4e487b7100000000000000000000000000000000000000000000000000000000600052602260045260246000fd5b6000600282049050600182168061100c57607f821691505b602082108114156110205761101f610fc5565b5b50919050565b82818337600083830152505050565b60006110418385610b5f565b935061104e838584611026565b61105783610ba3565b840190509392505050565b6000604082019050818103600083015261107d818587611035565b905061108c6020830184610bf9565b949350505050565b7f4e487b7100000000000000000000000000000000000000000000000000000000600052601160045260246000fd5b60006110ce82610b3b565b91507fffffffffffffffffffffffffffffffffffffffffffffffffffffffffffffffff82141561110157611100611094565b5b60018201905091905056fea2646970667358221220f050317fd74e08aa16d310491132719862c51fecbade6c1384b1cfaee2da356c64736f6c63430008090033",
  "linkReferences": {},
  "deployedLinkReferences": {}
}